:020000040100F9
:10000000000000000090010033333333A1230001CE
:100010009DEB0001F0BF002000000000580204002A
:1000200034083408F1EB000139EC00014F00000006
:100030000000000000FA00000000000000000000C6
:10004000000020009600020B28011E0001000000A5
:100050000000000000000000515252511EF0040F39
:100060000CBFEFF30880EFF3098000F015BFA0F19B
:100070004101192900D8203070470000014610B511
:1000800009683C22B1FBF2F302FB1313B1FBF2F15E
:100090001D480360B1FBF2F302FB1313B1FBF2F155
:1000A00018224360B1FBF2F302FB1313B1FBF2F130
:1000B00083600A1D0723B2FBF3F403FB1422826161
:1000C0008A0040F2B55102F66C32B2FBF1F34433D0
:1000D0004361B2FBF1F301FB13218908C1613B29A4
:1000E00003D3027D920700D0491C0022074C13461F
:1000F0000261E25C8A4203D8891A5B1C0361F8E75B
:10010000491CC16010BD0000DC3C0020287B0101BF
:1001100070B5054601B90721541A241DB4F5B67F00
:1001200009DD286800F036F9A04204DC2868401C8C
:100130002860012070BD002C05DA2868401E286068
:1001400000F028F90444072094FBF0F0401C70BD37
:100150002DE9F04F89B01D468A468046002401AF44
:100160004FF0070B0192079057F8241011F8010B7C
:1001700047F8241048B125280DD0BAF1010F06D94F
:1001800008F8010BAAF1010A5CE0641E5AE00020A5
:1001900009B0BDE8F08F11F8010B47F824100028D2
:1001A000F3D002264FF030095A284BD020DC4D28DE
:1001B00073D014DC442871D008DC2528DDD0412818
:1001C0002AD042282ED043283CD130E0462847D0C0
:1001D000472857D0482862D0492833D161E05238A7
:1001E00008282FD2DFE800F0787AA6838A97A6A89D
:1001F0006138192826D2DFE800F00D1318202E25CB
:100200003513255C252560642566256D25737525C8
:100210008B9BA0006AA000E070A0A9690091B4E0E7
:100220007DA000E088482969F8E788A007E06969AF
:10023000642091FBF0F0133082E0E86880E0641CF9
:1002400047F82400002C8FDA002088F80000079976
:10025000A8EB01009CE7E8684FF02009009070E0EF
:100260007EA0ECE7686900F26C700090D5E9061298
:100270006846FFF74DFF0099642091FBF0F200FB08
:1002800012105DE06869042600F26C700090D5E9F8
:1002900006126846FFF73CFF53E010E048E0A8680C
:1002A0004EE0A8680C21173090FBF1F201FB120020
:1002B00001E0E8690326401C42E02869FBE7686822
:1002C0003EE069A0BBE7A8680C2801DA67A0B6E7A2
:1002D00067A0B4E767A0B2E769A0B0E728682FE09D
:1002E00069A0ACE7A869012608BB072028E0D5E98A
:1002F0000610401AC01D90FBFBF021E0686900F277
:100300006C700090D5E906126846FFF701FF17E010
:100310000126A86914E0A9695846891D91FBF0F2ED
:100320000BFB1211EA69511AC91D91FBFBF007E0A2
:1003300056A084E758A082E70426686900F26C7032
:10034000009000218DF8181006A80A2113E0009AE9
:1003500092FBF1F301FB1322303200F8012D009AD9
:1003600092FBF1F2009232B901E000F8019D321ED9
:10037000A6F10106F9DC321EA6F10106E7DC5EE714
:1003800010F8011B0029FBD100994A1E0092002998
:10039000F6DC54E781070CD1642190FBF1F201FBFC
:1003A000120151B94FF4C87190FBF1F201FB120038
:1003B00018B1002000F26D1070470120FAE700002C
:1003C00053756E004D6F6E0054756500576564007F
:1003D00054687500467269005361740053756E6409
:1003E0006179004D6F6E6461790054756573646165
:1003F00079005765646E657364617900546875723D
:10040000736461790046726964617900536174753F
:1004100072646179000000004A616E004665620006
:100420004D617200417072004D6179004A756E0035
:100430004A756C0041756700536570004F63740026
:100440004E6F760044656300347B010125612025F1
:1004500062202565202554202559000025592D2589
:100460006D2D2564000000000A000000414D0000D1
:10047000504D000025493A254D3A2553202570005E
:1004800025483A254D00000009000000256D2F2564
:10049000642F25790000000025483A254D3A255360
:1004A0000000000030B505462A460B4612F8010B45
:1004B00013F8014B08B1A042F8D01CB1002802D0BB
:1004C0006D1CF1E7284630BD421C10F8011B0029C5
:1004D000FBD1801A704710B5002200E0521C835CEB
:1004E0008C5CA34201D1002BF8D1D8B2E1B2401A02
:1004F00010BD30B505460020034600E05B1C93426A
:1005000005D2EC5CC85C201A01D1002CF6D130BDBC
:100510002DE9FE4F804681EA0300C00F0C46009093
:1005200021F0004123F00045B8EB0200A94105D2BB
:100530004046214690461C460B46024623F00040AA
:10054000104347D0270DC7F30A00C3F30A510290A6
:10055000401A019040286BDAC3F3130040F4801B6B
:100560000098924620B10023D2EB030A63EB0B0BF9
:1005700001985946C0F14002504600F012FA064672
:100580000D4650465946019A00F02AFA10EB080031
:100590006141002487EA115284EAE7731A4340D08C
:1005A000009A62B3019A012A4FEA075215DC001B38
:1005B00061EB02014FF0004202EA0752CDE900422E
:1005C000001C41F5801132462B4600F02AFA03B098
:1005D000BDE8F08F40462146F9E7001B61EB0201C0
:1005E000001C41F5801300185B412018A2F500178C
:1005F00047EB030140EAD570B6196D4111E06D0873
:100600004FEA360645EAC0754FEA0752001B61EB18
:100610000201001C41F5801149084FEA3000001921
:10062000514132462B4603B0BDE8F04F00F0EAB925
:100630000098012240000023D0EB020263EBE0733C
:10064000009821464FEAE074B8EB000061EB04012A
:10065000E9E783F000435BE781F0004158E72DE9CB
:10066000FE4F81EA030404F0004421F000410094AD
:100670004FF0000B23F0004350EA01045ED052EA31
:1006800003045BD0C3F30A54C1F30A552C44A4F20B
:10069000F3340194A0FB0254C1F3130141F480111F
:1006A000C3F3130343F4801301FB024400FB034E26
:1006B000840A970A44EA815447EA8357A4FB0768EF
:1006C00002958D0A05FB07854FEA932C04FB0C5419
:1006D0002705029D4FEA065847EA1637B5EB08058D
:1006E0006EEB070C870E920E47EA811742EA8312DF
:1006F000A7FB0201B6EB0B0164EB00042B0D43EAF0
:100700000C335E1844EB1C50DA465146E7FB0201FD
:10071000C5F313044FEA0B3343EA14534FEA043290
:10072000019C43EA0603A4F10C040294009CCDE969
:1007300000B400F076F903B0BDE8F08F0020014668
:10074000F9E72DE9F04D81EA030404F0004B21F0B4
:10075000004514464FF0000A23F0004150EA05021C
:1007600020D054EA01021DD0C5F30A570246C5F352
:100770001303C1F31300C1F30A5640F4801543F488
:100780008013A7EB0608101BD64608F2FD3873EB62
:10079000050002D308F1010801E092185B41B8F1AD
:1007A000000F03DA00200146BDE8F08D00204FF471
:1007B0008011064684460EE0171B73EB050705D330
:1007C000121B63EB050306434CEA010C49084FEA90
:1007D000300092185B4150EA0107EDD152EA030064
:1007E00012D082EA040083EA0501084305D0101BF9
:1007F000AB4106D20122002306E000224FF0004365
:1008000002E06FF0010253101AEB06004CEB0851A6
:1008100010EB0A0041EB0B01BDE8F04D00F0F2B81F
:100820000EB5C10F80EAE0700844CA07002140F20B
:1008300033438DE80E000A460B4600F0F2F803B091
:1008400000BD70B5C1F30A5201F000450024C1F3A8
:10085000130140F2FF3341F480119A4201DA002083
:1008600070BD40F233439A42A2F2334203DC52425B
:1008700000F0A6F800E090402C43F1D0404270BD5B
:10088000C1F30A5210B5C1F3130140F2FF3341F432
:1008900080119A4201DA002010BD40F233439A429F
:1008A000A2F2334203DC524200F08AF810BD9040BD
:1008B00010BD000030B5041E71F1000404DB4FF0E0
:1008C0000044404264EB0101141E73F1000405DB97
:1008D0001C464FF00043524263EB04038B4208BFB7
:1008E000824230BD30B5041E71F1000404DB4FF0CC
:1008F0000044404264EB0101141E73F1000405DB67
:100900001C464FF00043524263EB0403994208BF78
:10091000904230BD30B50B46014600202022012414
:1009200009E021FA02F59D4205D303FA02F5491BBD
:1009300004FA02F52844151EA2F10102F1DC30BDD3
:100940002DE9F05F0546002092469B468846064604
:10095000814640241BE0284641464746224600F097
:100960002FF853465A46C01A914110D311461846E3
:10097000224600F016F82D1A67EB01084F46224672
:100980000120002100F00DF817EB00094E41201E58
:10099000A4F10104DFDC484631462A464346BDE85F
:1009A000F09F202A04DB203A00FA02F10020704771
:1009B0009140C2F1200320FA03F31943904070479D
:1009C000202A04DB203A21FA02F00021704721FAA4
:1009D00002F3D040C2F1200291400843194670470B
:1009E000202A06DBCB17203A41FA02F043EAE073F3
:1009F00006E041FA02F3D040C2F1200291400843E0
:100A00001946704710B5141E73F1000408DA401C33
:100A100041F1000192185B411A4301D120F001001D
:100A200010BD2DE9F04D92469B4611B1B1FA81F20D
:100A300002E0B0FA80F220329046FFF7B2FF04469F
:100A40000F4640EA0A0041EA0B0153465A46084362
:100A500013D0114653EA010019D0C8F140025046A4
:100A6000FFF7AEFF05460E46504659464246FFF791
:100A700098FF084305D0012004E020463946BDE830
:100A8000F08D0020054346EAE0762C4337430A9870
:100A90006305E40AA0EB08000022FD0A44EA47547B
:100AA0000A3002D500200146E9E701051019694125
:100AB000DDE9084500196941BDE8F04DA2E770B5D0
:100AC00021F0004303430CD0C1F30A550024D5EBB9
:100AD000040564EB0403D617AD1AB34102DB002012
:100AE000014670BD201841EB025170BDC1F30A529E
:100AF000C1F3130140F2FF3341F480119A4202DA4C
:100B000000200146704740F233439A42A2F233423A
:100B100002DC5242FFF754BFFFF743BF2DE9F04D0F
:100B200000231A461B1A8A4103DB00200146BDE858
:100B3000F08DC1F30A52C1F3130141F480154FF057
:100B4000000BD10702D100186D41521E0027044648
:100B500040F2FF11384601EB620A3E4680460246EB
:100B600000204FF48011FFF72BFFC2197141BB1811
:100B700046EB0100B4EB030C75EB000C04D3E41A54
:100B800065EB000517460E46241908F101006D417A
:100B900080463428E3DDF91946EB0600091BA8411D
:100BA00003D24FF0FF32134601E0002213461BEB45
:100BB000070046EB0A51BDE8F04DFFF723BF43F2B3
:100BC000597CC0F2000C604741F2511CC2F2000C8B
:100BD000604741F2271CC2F2000C604742F25B1CE6
:100BE000C2F2000C604744F6B53CC0F2000C60470E
:100BF00041F20D1CC2F2000C604741F2614CC0F2A0
:100C0000000C604741F60D3CC2F2000C604741F613
:100C10008F2CC2F2000C60474AF2897CC0F2000CB3
:100C2000604740F6C50CC0F2000C604740F6B50CBA
:100C3000C0F2000C604741F27B4CC0F2000C6047F0
:100C400041F6833CC2F2000C604740F6F70CC0F25C
:100C5000000C604742F2692CC0F2000C604740F67D
:100C6000613CC2F2000C604741F2954CC0F2000CAE
:100C7000604740F6C56CC2F2000C604742F28D1C22
:100C8000C2F2000C604741F68D2CC2F2000C6047A6
:100C90004AF2A53CC0F2000C60474AF2256CC0F253
:100CA000000C60474AF2996CC0F2000C604743F2B6
:100CB000D56CC0F2000C60474AF2CD4CC0F2000C7B
:100CC000604743F2E96CC0F2000C604743F2FF5CFE
:100CD000C0F2000C60474AF2F57CC0F2000C60479D
:100CE0004AF6852CC0F2000C604740F60D1CC0F29D
:100CF000000C60474AF64D3CC0F2000C60474AF2D7
:100D0000836CC0F2000C604740F6C50CC0F2000CCA
:100D1000604743F21D7CC0F2000C60474AF2597CE8
:100D2000C0F2000C604743F2117CC0F2000C604737
:100D300043F2316CC0F2000C604740F6F70CC0F291
:100D4000000C604740F6810CC0F2000C604740F692
:100D5000910CC0F2000C604740F6A10CC0F2000CF0
:100D6000604749F6254CC0F2000C60474AF2D56C4A
:100D7000C0F2000C60474AF6452CC0F2000C6047F8
:100D80004AF2876CC0F2000C60474AF2656CC0F210
:100D9000000C604745F2D11CC0F2000C604743F2E2
:100DA0008D5CC0F2000C604741F6AD4CC0F2000C07
:100DB000604741F6A57CC0F2000C604744F6090C80
:100DC000C0F2000C604741F2C50CC2F2000C604753
:100DD00041F2930CC2F2000C60474AF2D51CC0F2FB
:100DE000000C60474AF2C56CC0F2000C604742F646
:100DF0008D4CC0F2000C60474AF2293CC0F2000C56
:100E0000604744F2A56CC0F2000C604742F6254CE6
:100E1000C0F2000C604740F6E90CC0F2000C6047DD
:100E20004AF2A15CC0F2000C604742F6651CC0F2B9
:100E3000000C604742F6A51CC0F2000C60474AF265
:100E4000592CC0F2000C60474AF2712CC0F2000C21
:100E500060474DF6E95CC0F2000C604745F6753C12
:100E6000C0F2010C604745F2A92CC0F2000C6047AB
:100E700049F69D4CC0F2000C604740F6AD3CC0F214
:100E8000000C604740F6970CC0F2000C60474AF631
:100E9000E90CC0F2000C6047044606A0FFF78FFE85
:100EA00009A0A169FFF78BFE0CA06169FFF787FE1F
:100EB000FEE7000043726173682C2064756D70203A
:100EC000726567733A0D0A005043202020203D20B0
:100ED0003078253038580D0A000000004C52202090
:100EE00020203D203078253038580D0A00000000C1
:100EF0002DE9F04104461D4616460F462A20FFF70D
:100F000063FE2046FFF765FE3046FFF762FE2B20AA
:100F1000FFF75AFE3846FFF75CFE2846FFF759FEFA
:100F2000BDE8F0412C20FFF74FBE70B50646EF2319
:100F300000211A460846FFF7DBFF00240025304653
:100F4000FFF747FE6D1CADB2F02DF8D3641CA4B2C0
:100F5000F02CF3D370BD10B514460B460246FFF7D4
:100F6000C7FF2046BDE81040FFF733BE00EB80000E
:100F70004000FFF733BE00000FB44FF4947130B55A
:100F8000CBB06C464FAB20464E9A00F03DF9064D73
:100F900003E02846641C1BF401D421780029F8D111
:100FA0004BB030BC5DF814FB008005507CB50422CA
:100FB000114600201BF422D20422052100201BF43C
:100FC0001DD20422062100201BF418D20025022085
:100FD000CDE900057F4B2A462946082015F098FAEE
:100FE0000022114610461BF409D2002207211046A8
:100FF0001BF404D2002211461046FFF7F4FD002234
:1010000007211046FFF7EFFD012108461BF403D22C
:10101000012180201BF4FFD16F4C206800F07F007D
:1010200020606E4805702068C0B240F0010020606A
:101030000A20FFF79BFF206800F0FE0020600A20D6
:10104000FFF794FF2068C0B240F0010020600A2042
:10105000FFF78CFF1120FFF7B7FD7820FFF786FF21
:101060003620FFF7B1FD0020FFF7C2FD3A20FFF761
:10107000ABFD0520FFF7BCFDB220FFF7A5FD0C205E
:10108000FFF7B6FD0C20FFF7B3FD0020FFF7B0FD22
:101090003320FFF7ADFD3320FFF7AAFDB720FFF7A0
:1010A00093FD3520FFF7A4FDBB20FFF78DFD192030
:1010B000FFF79EFDC020FFF787FD2C20FFF798FD6E
:1010C000C220FFF781FD0120FFF792FDC320FFF74B
:1010D0007BFD1220FFF78CFDC420FFF775FD20205B
:1010E000FFF786FDC620FFF76FFD0F20FFF780FD9D
:1010F000D020FFF769FDA420FFF77AFDA120FFF7BC
:1011000077FDE020FFF760FDD020FFF771FD0420A0
:10111000FFF76EFD0D20FFF76BFD1120FFF768FD57
:101120001320FFF765FD2B20FFF762FD3F20FFF73F
:101130005FFD5420FFF75CFD4C20FFF759FD1820A0
:10114000FFF756FD0D20FFF753FD0B20FFF750FD75
:101150001F20FFF74DFD2320FFF74AFDE120FFF799
:1011600033FDD020FFF744FD0420FFF741FD0C20A4
:10117000FFF73EFD1120FFF73BFD1320FFF738FD81
:101180002C20FFF735FD3F20FFF732FD4420FFF70D
:101190002FFD5120FFF72CFD2F20FFF729FD1F20E9
:1011A000FFF726FD1F20FFF723FD2020FFF720FD7E
:1011B0002320FFF71DFD2120FFF706FD1120FFF77B
:1011C00003FD2920FFF700FDBDE87C40012011F060
:1011D00066B8000000366E01000006508023002033
:1011E0000FB4084B10B504A902AA039800F076F9D1
:1011F000044602A9002000F013FD204610BC5DF853
:1012000014FB0000211C00017CB5044600201D4693
:10121000164600290BD0491ECDE90041044B6A4611
:101220002946304600F05AF9009A002111707CBD21
:101230000B1C0001490050EAC12018BF04204A0DD0
:1012400018BF40F0010040F2FF72B2EB515F08BFDF
:1012500040F00200012808BF052070472DE9F04149
:101260004F1E00EBC7010446D1E9000115461E469A
:1012700037F006020DD02A463346FFF7F0F97F1EFD
:1012800004EBC703D3E90023FFF742F937F0060266
:10129000F1D1022F25D0042F13D0062F18BFBDE89F
:1012A000F0812A463346FFF7DAF9D4E90A23FFF73B
:1012B0002FF92A463346FFF7D2F9D4E90823FFF77E
:1012C00027F92A463346FFF7CAF9D4E90623FFF780
:1012D0001FF92A463346FFF7C2F9D4E90423FFF782
:1012E00017F92A463346FFF7BAF9D4E90223FFF784
:1012F0000FF92A463346FFF7B2F9D4E90023BDE8D7
:10130000F041FFF705B900000022134610460149DD
:10131000FFF717BA0000F03F0122FFF7D0BBFFF73D
:10132000F7B80022134610461146FFF70ABA40F2FA
:10133000013200204FF0E041FFF7C1BB024A00201C
:101340001107FFF7BCBB000001FDFFFF014908606A
:10135000704700002C2900202DE9FF5F82B000219A
:10136000DDE90430020DDDF840B0034318D044F647
:101370001050A2F2FF3242431514119801281FD0D9
:10138000A5EB0B00401C5FEA000A4FF000064E4F31
:10139000DFF83891B046504615D5CAF1000413E085
:1013A000119801244AA3012801D16FEA0B01029888
:1013B000119AC0E90031C0E9024206B0BDE8F09FD1
:1013C000CBF10000DFE704460021404A491842EB18
:1013D0000450CDE9001012E0E00707D032463B464A
:1013E00040464946FFF73BF98046894632463B4630
:1013F00010461946FFF733F906460F466410002CD5
:10140000EAD1DDE90401DDE90023BAF1000F06DAD3
:10141000FFF725F942464B46FFF721F905E0FFF7B4
:1014200090F942464B46FFF78CF904460E460022DF
:10143000284BFFF757FA03D84FF0FF30014607E07B
:101440000022254B20463146FFF762F8FFF74EFB9E
:10145000102409E0002C0ADB0A220023FFF770FAAF
:10146000039B30321A55641E50EA0102F2D1641C0B
:10147000039AC4F111031444119A012A03D00122E2
:1014800008430DD10AE0084304D000204FF0110BAF
:10149000119072E7A3EB0B056D1E0DE05B4504DDBB
:1014A0004FF0000205F1010504E003DA4FF00002FD
:1014B000A5F10105002AECD002981199C0E902318A
:1014C000C0E9004579E70000000014400000F03F4B
:1014D000300000000000F0430000E03F2DE9FF4F26
:1014E00095B09B468946064600250FE2252877D110
:1014F00000242746F84A0121059400E0044316F829
:10150000013F203B01FA03F01042F7D130782A283E
:1015100011D06FF02F033078A0F13002092A16D8CD
:10152000059A44F0020402EB820203EB42021044EB
:10153000761C0590EFE759F8042B0592002A03DA90
:10154000504244F40054059044F00204761C307874
:101550002E2816D116F8010F44F004042A280DD0C5
:101560006FF02F023078A0F13003092B09D807EB78
:10157000870302EB4303C718761CF3E759F8047B93
:10158000761C30786C280FD006DC4C2817D06828E1
:101590000DD06A2814D104E0742810D07A280FD115
:1015A0000DE044F400140AE044F4801401E044F433
:1015B00040147278824202D104F58014761C761CA5
:1015C000307866280BD013DC582877D009DC002847
:1015D00075D04528F6D04628F4D047281AD19DE189
:1015E00018E0632835D0642879D0652812D195E1B8
:1015F000702873D008DC6728F1D069286FD06E2876
:101600000DD06F2806D1B5E073282CD0752875D081
:10161000782874D05A46179990476D1C75E1C4F329
:101620000250022809D003280DD0D9F80010042850
:101630000DD00D6009F1040967E1D9F80010EA172F
:10164000C1E90052F6E7D9F800100D80F2E70D70FD
:10165000F0E719F8041B8DF8001000208DF8010048
:10166000EA46012003E059F804AB4FF0FF30610770
:101670004FF0000102D40DE008F101018846B942A3
:101680000FDA8045F8DB1AF808100029F4D108E0D9
:1016900008F1010188468142FADB1AF80810002996
:1016A000F6D105985B46A0EB080721463846179A05
:1016B00000F094FA284400EB080507E04DE029E12A
:1016C0000DE01AF8010B5A4617999047B8F1010836
:1016D000F7D25B4621463846179A13E142E00A22C8
:1016E0000092C4F302524FF0000A022A08D059F8BF
:1016F00004CB032A4FEAEC710AD00DE029E02AE07E
:1017000009F1070121F00702F2E802C1914609E060
:101710000FFA8CFC4FEAEC71042A03D14FFA8CFCCF
:101720004FEAEC71002907DA0A460021DCF1000CCF
:1017300061EB02012D2202E0220504D52B228DF857
:101740000420012203E0E20701D02022F7E79046BF
:1017500059E00A2102E010220DE010214FF0000AAA
:1017600000910BE010224FF0000A44F00404082717
:10177000009203E008224FF0000A0092C4F30252E4
:10178000022A05D059F804CB0021032A08D009E029
:1017900009F1070121F00702F2E802C1914605E0D4
:1017A0001FFA8CFC042A01D10CF0FF0C4FF000084A
:1017B000220728D5702806D0009B83F0100353EA37
:1017C0000A0305D00EE040228DF80420012208E033
:1017D0005CEA010206D030228DF804208DF8050065
:1017E00002229046009B83F0080353EA0A030AD1C1
:1017F0005CEA010201D1620705D530228DF8042090
:101800004FF001087F1E582804D034A003900EA882
:1018100002900DE036A0F9E753466046009AFFF7C4
:101820008FF884460398825C0298401E02900270F2
:101830005CEA0100F0D1029806A9081A00F1200A1A
:10184000600702D524F4803400E00127574502DD0B
:10185000A7EB0A0000E0002000EB0A0100900598C9
:101860004144401A0590E00306D45B462146179A8E
:10187000059800F0B3F90544002706E001A85A4690
:10188000C05D179990476D1C7F1C4745F6DBE00350
:101890000CD55B462146179A059800F09FF9054440
:1018A00004E030205A46179990476D1C0099481E55
:1018B00000900029F5DC08E0029802995A46007869
:1018C000491C0291179990476D1CBAF10001AAF1C9
:1018D000010AF1DC65E100000928010030313233F2
:1018E000343536373839616263646566000000005C
:1018F0003031323334353637383941424344454646
:101900000000000000F058F90544761C30780028EB
:101910007FF4ECAD19B02846BDE8F08F620700D423
:10192000062709F1070222F0070CFCE80223E14632
:1019300003F000485FEA080C02D00FF2702C0DE0B3
:101940005FEA045C02D50FF2682C07E05FEAC47C12
:1019500002D00FF2602C01E0AFF2700C4FF0FF38B4
:1019600023F00043CDF850C065280CD006DC452894
:1019700009D046281DD047283DD13DE0662818D023
:1019800067287ED138E00021112F01DB112000E013
:10199000781CCDE9000106A90EA8FFF7DDFCDDE902
:1019A0000F010E9A03910021009207F1010A0491A0
:1019B0004DE04FF000400097CDE9011006A90EA8B8
:1019C000FFF7CAFCDDE90F0203920E9B119900227A
:1019D000DDF80CA00093049211B9791C00EB010A08
:1019E000B7EB0A0004D4C0F1FF3007F1010A0490FC
:1019F000AAEB0700019044E0012F00DA0127002143
:101A0000112F01DD112000E03846CDE9000106A9C3
:101A10000EA8FFF7A1FCDDE90F010E9A039100214A
:101A200004910092BA4621070CD40399514500DA7B
:101A30008A46BAF1010F05DD009AAAF10101515C55
:101A4000302908D0B84202DA10F1040F06DA012179
:101A5000CDE9011015E0AAF10101E9E7002805DC54
:101A6000049901440491AAEB000102E0411C514594
:101A700000DD8A460499401A401C01904FF0004056
:101A80000290200704D40198504501DBCDF8048072
:101A900000208DF84F0002980DF14F07B0F1004F74
:101AA00025D02B200E9002984FF0020800280CDA67
:101AB000404202902D200E9007E00A210298FEF786
:101AC00029FF3031029007F8011DB8F10001A8F19B
:101AD0000108F2DC02980028EFD1791E0E980870F8
:101AE000307800F0200040F0450007F8020D12A801
:101AF000C01B00F107081498007800B1012000EB2A
:101B00000A01019801EBE07105984144401A401E1A
:101B10000590E00306D45B462146179A059800F02D
:101B20005DF805441498007818B15A461799904703
:101B30006D1CE00324D55B462146179A059800F0FA
:101B40004DF805441CE00498002807DBDDE903019B
:101B5000884203DD0098405C179901E01799302016
:101B60005A469047049805F10105401C04900198DD
:101B7000401E019004D12E205A46179990476D1CA3
:101B8000BAF10001AAF1010ADDDC05E017F8010B4A
:101B90005A46179990476D1CB8F10001A8F1010849
:101BA000F4DC5B462146179A0598ABE62D00000051
:101BB0002B000000200000002DE9F0410446002524
:101BC0001E461746880404D405E039462020B04755
:101BD0006D1C641EF9D52846BDE8F0812DE9F04161
:101BE000044600251E469046C80301D5302700E074
:101BF0002027880404D505E041463846B0476D1CCF
:101C0000641EF9D52846BDE8F0814A68002A06D04E
:101C10000A68531C0B6010704868401E486070478B
:101C20000A68531C0B6010707047000010B50C2040
:101C3000FEF7E3FF16488068016821F001010160AA
:101C400001221F210020FEF7DDFF00F0EF0301223B
:101C50001F210020FEF7DBFF012223210020FEF7D9
:101C6000D1FFC0B240F08003012223210020FEF703
:101C7000CEFF012224210020FEF7C4FFC0F3C400E0
:101C8000C30001222421BDE810400020FEF7BFBFA1
:101C90004427002070B5144CA1682069E26801EB6C
:101CA0004001101A102800D91020104A93689A6A2F
:101CB000920518D5024603E05D6A21F8025B401EDA
:101CC0000028F9D1206910442061E16888420AD3D4
:101CD0000C20FEF792FFFFF7A9FFD4E9020162682A
:101CE000BDE87040104770BD6831002044270020D7
:101CF000F8B50F4E8DF800008DF801108DF8022018
:101D0000716F1446054609B168468847022D0ED109
:101D1000002C0CD1707A002809D103F01BFF002899
:101D200005D102210320FEF777FF00F045F9F8BD49
:101D3000E439002008B58DF8000005488DF8011041
:101D40008DF80220816F002901D06846884708BDC0
:101D5000E43900201CB58DF8000005488DF801100D
:101D60000192D0F88410002901D0684688471CBD34
:101D7000E439002000B585B008228DF80510094926
:101D80008DF800208A78824201D1002000E00120F5
:101D90008DF80400D1F88810002901D068468847E2
:101DA00005B000BDE439002000B5417889B00907CD
:101DB00048D50C218DF81010CDF814D0427802F0DF
:101DC0000701032908D0012908D0520716D002299B
:101DD00016D0042916D018E0042114E002F0700196
:101DE000202909D0302903D0702903D008210AE026
:101DF000002108E0012106E0022104E0102102E0B8
:101E0000142100E020218DF80010D0F80210CDF848
:101E10000110C188ADF80510017A8DF80710417CDA
:101E20008DF80910017C8DF8081000F11A0103915A
:101E3000008BADF80A000448D0F88810002901D0C2
:101E400004A8884709B000BDE439002010B500227D
:101E5000052102201AF4D2D2012205210220FEF728
:101E6000C2FE012148051AF4D6D200220C490D48C1
:101E70000FF0A2FA0C4A03210A4804F097F8094827
:101E800000220A4928300FF0A9FB064801220A2146
:101E900028300FF0EDFBBDE81040024804F008BA0E
:101EA0008934010114310020B55F00018166010110
:101EB00000B585B00D208DF8000005488DF80410A0
:101EC000D0F88810002901D06846884705B000BDC9
:101ED000E43900207047000000B585B012218DF86C
:101EE000001007498DF80400084401228272D1F8DD
:101EF0008810002901D06846884705B000BD000061
:101F0000E43900200EB5064BD3F8803033B1CDE96B
:101F100000018DF80820684698470EBDFEE70000D6
:101F2000E439002010B5044686B001208DF8000089
:101F30001022214601A8FEF774FE227805480021F0
:101F400011540A38D0F88810002901D06846884713
:101F500006B010BDEE39002000B585B013218DF814
:101F6000001007498DF80400084401228272D1F85C
:101F70008810002901D06846884705B000BD0000E0
:101F8000E439002010B5044686B002208DF8000028
:101F90001022214601A8FEF744FE227805480021C0
:101FA00011540A38D0F88810002901D068468847B3
:101FB00006B010BDEE39002010B50849084C0120CC
:101FC0004872D4F8140104F58A74FEF72FFE00203D
:101FD000A061BDE8104014F081BB0000E43900208E
:101FE00000000C5000B585B003218DF8001000886A
:101FF000ADF804000448D0F88810002901D06846E4
:10200000884705B000BD0000E4390020064A0146BB
:1020100000201288130406D5044BC2F30E02985414
:102020001846FEF73FBA7047C4210020442900201B
:1020300010B50522042103201AF4E0D1052211462F
:1020400003201AF4DBD108210A481AF445D30320EF
:10205000FEF7F1FD0848094C01224168204614F0C2
:10206000B1FA204614F013FBBDE810400120FEF742
:10207000E2BD000000000550C42100200000025015
:1020800010B50F4C2B2120461AF488D39620FEF76A
:10209000A5FD2B2120461AF481D39620FEF79EFD44
:1020A0002B2120461AF47AD34FF47A70FEF796FD6E
:1020B000BDE81040142203A103A000F007B80000FF
:1020C000000005504F4B0000415400002DE9F0473F
:1020D000144D8846002681460146144637462E8018
:1020E00011A004F0F7F9B8F1000F18D094B916E078
:1020F0006420FEF773FD288800040BD54046FFF7E7
:1021000085FF30B14246494609A0FEF735FF2CB1A4
:1021100005E02F80641E2404240CE9D101263046FA
:10212000BDE8F087C421002025730D0A00000000DF
:10213000B7A2CBCDA3BA257320BBD8D3A63A2573BB
:102140000D0A0000F0B50746B3B00E46002437A0D4
:10215000FEF712FF42F2107508E000BFFFF790FF94
:102160002846FEF73BFD34A0FEF706FF142236A1F9
:1021700036A0FFF7ABFF0028F0D1C82232A134A06F
:10218000FFF7A4FF2846FEF729FD2846FEF726FDA7
:102190002846FEF723FD2846FEF720FDC8222AA187
:1021A0002EA0FFF793FF142227A130A0FFF78EFF88
:1021B0000028F8D1322224A12EA0FFF787FF28465D
:1021C000FEF70CFD2846FEF709FD2846FEF706FD42
:1021D0002846FEF703FD14221BA129A0FFF776FF76
:1021E00033463A4629A16846FEF7FAFF4FF47A755E
:1021F0004FF496760DE00A2C02D3012033B0F0BDE7
:102200002146641CE4B226A0FEF7B6FE2846FEF77F
:10221000E5FC32462BA16846FFF758FF0028EAD1BB
:102220002BA0FEF7A9FE0020E8E70000D7BCB1B85C
:10223000C1ACBDD30D0A0000CEB4BCECB2E2B5BD5A
:10224000C4A3BFE90D0A00004F4B00004154000039
:1022500041542B524553544F5245000041542B4397
:1022600049504D4F44453D30000000004154453039
:102270000000000041542B43574D4F44453D310071
:1022800041542B4349504D55583D300041542B4348
:10229000574A41503D222573222C222573220000EB
:1022A00057694669C1ACBDD3CAA7B0DC2CD5FDD4F3
:1022B000DAB3A2CAD4B5DA20256420B4CEC1ACBD4D
:1022C000D30D0A005749464920474F542049500032
:1022D00057694669C1ACBDD3B3C9B9A60D0A0000A0
:1022E00000B585B010208DF8000008788DF8040046
:1022F0000448D0F8881009B16846884705B0002026
:1023000000BD0000E43900202DE9F0410C461646DE
:10231000054601796FF007074FF6FF7C13E000BF19
:10232000286807EBC10210440288A24201D062452E
:1023300007D14568032231462046A847C0B2BDE810
:10234000F081491EC9B20029EAD10020F7E7000058
:1023500000B585B0042A11D10E228DF800208DF829
:1023600004000868CDF805004868CDF80900044865
:10237000D0F88810002901D06846884705B000BD14
:10238000E439002010B5044604480480FEF70EFE30
:102390002046BDE81040FEF7C8BD000082230020A3
:1023A000F8B5894C002638B102287DD003287CD0AE
:1023B00004287BD1FEF744FCA08D400403D594F89B
:1023C0004B00552814D00022022110461AF416D0D2
:1023D000002203214FEA02001AF410D04FF40051FA
:1023E0007A48FEF732FCFEF735FC012809D031E0CF
:1023F0000722062102201AF401D0072211460220EA
:10240000EAE773497348744A01E008C808C190427A
:10241000FBD30120FEF723FC70497148714A01E0AB
:1024200008C808C19042FBD36F48704900E040C023
:102430008842FCD36E496F486F4A01E008C808C162
:102440009042FBD36D496E486E4A01E008C808C14E
:102450009042FBD314F020F914F022FA94F82C00E7
:10246000C0F38110022807D10722052119F4C6D72D
:1024700065494FF080700860A08D000504D50420E8
:1024800017F4BED717F470D70021481FFEF7ECFBF6
:10249000202080F3118862B65B494FF00050F43978
:1024A0000860FEF7E6FB02E020E062E08AE05849BF
:1024B00056480860584957480860594957480860C5
:1024C0005949584808605A49584808605A49594873
:1024D00008605B49594808605B495A4808605C4994
:1024E0005A480860BDE8F8400FF025BFB4F8441022
:1024F000002017F481D0B4F8440000EB4000FEF750
:10250000BDFB202302223B210020FEF780FB0C2094
:10251000FEF7B4FB002302223B211846FEF777FBAF
:10252000012017F41DD1A08D000402D5606B000AB4
:10253000606314F06DF947480168C968026821F4C6
:102540008071D1608DF8006005E000BF9DF800103B
:10255000491C8DF800109DF800100A29F6D3016877
:10256000C968006841F48071C160BDE8F84019F4A1
:10257000B197012250210020FEF744FBC5B2A5F11E
:102580000A0301228B210020FEF741FBA5F109037C
:1025900001228D210020FEF73AFBA5F1080301225C
:1025A000CC210020FEF733FB4FF08040016841F062
:1025B00080410160FEF767FBA08DC00502D472B6B2
:1025C00086F31188F8BD0000800000200020004044
:1025D000600B0020BC7D0101F87D0101C0210020BD
:1025E0001C9401018C9B010130290020083D002032
:1025F0009C0B0020F87D01011C94010100000020CB
:102600003C7D0101BC7D0101FCED00E0BD700001DD
:102610005C010020012D0001600100209B340101BC
:102620006401002061340101D82800206D1D0020C4
:1026300058010020290F00206C010020AF0F00205E
:1026400070010020C10D002074010020FF0E002049
:1026500068010020C0FC010000B585B00B218DF899
:10266000040005488DF80010D0F88810002901D02A
:102670006846884705B000BDE439002000B585B044
:102680000A218DF8001041788DF804104188ADF8CA
:10269000061001798DF80810D0F80610CDF8091051
:1026A0004189ADF80D10007B8DF80F000448D0F87B
:1026B0008810002901D06846884705B000BD000099
:1026C000E43900200D4810B5808D00040CD50C4C69
:1026D000D4F8140104F58A74FEF7A8FA0020A0616A
:1026E000BDE8104013F0FABF0648016F09B10020A1
:1026F0008847BDE81040002003F018BB8000002090
:1027000000000C50E439002000B585B009218DF897
:10271000040005488DF80010D0F88810002901D079
:102720006846884705B000BDE439002000207047A6
:102730000C4910B50020487200F076FA002000F035
:1027400079F9094890F84E00012802D9002000F0DC
:1027500071F9002000F07EFABDE81040002000F082
:10276000BAB90000E43900208000002000B585B02F
:1027700007228DF800208DF8040008788DF80500F8
:1027800048788DF8060007480A7800F86A2F4978DB
:102790004170D0F81E10002901D06846884705B066
:1027A00000BD0000E43900200249C96E002900D0B4
:1027B00008477047E43900207047000000B585B035
:1027C00004228DF8040006488DF800208DF80510CD
:1027D000D0F88810002901D06846884705B000BDB0
:1027E000E439002000B585B005228DF800208DF871
:1027F00004000888ADF806004888ADF8080088880D
:10280000ADF80A0007480A8820F8642F4A884280F9
:1028100089888180416A002901D06846884705B0CF
:1028200000BD0000E439002000B585B006228DF817
:10283000040006488DF800208DF80510D0F88810A7
:10284000002901D06846884705B000BDE439002062
:10285000024900EB400011F830007047B439002005
:102860002DE9F041884601465648002514468378F4
:10287000434503D0C378434500D10125514E022280
:10288000303EA42925D00027A0293DD0A82901D079
:10289000A7293CD12844FF210771817005EB450031
:1028A00016F830104A070DD521F0040106EBC005DB
:1028B00006F83010686828B100F0BCF86868FEF7C8
:1028C000E7F96F6022464146BDE8F0410020FFF77E
:1028D00031BA3CB12844214602714046BDE8F0417E
:1028E000FFF748BA28440421017105EB450016F8AA
:1028F0003010CA070BD021F0010106F8301028462D
:10290000BDE8F04100F0F6BB284414B10771BDE802
:10291000F0810271224641460020FFF7E9F905EBFC
:102920004504B04616F83410080710D521F0080108
:1029300008EBC40608F83410B16841B131F8022B35
:10294000284600F0BBFAB068FEF7A2F9B76018F8A5
:102950003410C80610D521F0100108EBC40608F8A1
:102960003410F16841B131F8022B284600F042FBE7
:10297000F068FEF78DF9F76018F83410480610D5A6
:1029800021F0400108EBC40608F83410316941B168
:1029900031F8022B284600F0DFFA3069FEF778F9AB
:1029A000376118F8341040468A06B0D521F020016E
:1029B00000F8341008EBC400818A2846BDE8F041D5
:1029C00000F066BBE439002000EB4002034810F839
:1029D00032300B4300F8323070470000B439002029
:1029E00030B40B4612490324A4280CD00025A22899
:1029F00014D0A82801D0A7280ED1CD5430BC194638
:102A00000220FFF797B92AB1CC5430BC11461846C2
:102A1000FFF74EBA0520C85430BC70472AB1CD54D8
:102A200030BC19460220FFF763B9CC54F8E7000028
:102A3000B128002040B101788A0601D500F0B8B86D
:102A4000C90601D500F002B800F05AB810B5044626
:102A50002823032207214FF45A60FEF71EF9A02114
:102A6000017000224270012101714177637A80F880
:102A700021302378112B04D0122B05D0142B0FD02A
:102A800012E0C18041710FE00521C1804271D4F88C
:102A90000210C0F80A10E188C181217A017403E0B4
:102AA0004FF48171C1804271617A032902D141776B
:102AB00080F82110E17B4172A17B0177618941613E
:102AC000A189816180F82020217C80F82210BDE856
:102AD0001040FEF7E7B810B5044602230322072191
:102AE0004FF45A60FEF7D9F82CB121880180BDE877
:102AF0001040FEF7D7B8A221017000214170F6E71F
:102B000070B504462823032207214FF45A60FEF7CC
:102B1000C4F8A02101700325012200217CB10171BC
:102B20004277427123780226012B14D0022B14D055
:102B3000052B14D0042B16D0032B16D016E04170B1
:102B40000171C580417207230377427741714FF4C9
:102B50007071416127E0C58008E0052300E00D2386
:102B6000C380417102E0C68000E0C180637833B168
:102B7000012B04D0022B04D0032B04D004E04170BD
:102B800002E0427000E04670D4F80210C0F80A106B
:102B9000E188C181217A0174A17B0177E17B4172D7
:102BA00061894161A1898161BDE87040FEF77AB811
:102BB00010B504462823032207214FF45A60FEF77C
:102BC0006CF8A0210170002141700222027122786C
:102BD000212A02D0222A02D003E0C18001E004228F
:102BE000C2804171D4F80220C0F80A20E288C28174
:102BF000227A02744172A27B0277012242776289B3
:102C00004261A289826180F82010617A80F82110E7
:102C1000217C80F82210618A8184A18AC184BDE868
:102C20001040FEF73FB8000010B52823032207210B
:102C30004FF45A60FEF731F8A32101700021417072
:102C400002210171FEF72EF801490120487010BDE4
:102C5000E439002070B50C4D0446E87900280DD108
:102C60000223032207214FF45A60FEF716F834B10D
:102C700021880180FEF716F80120E87170BDA121BE
:102C8000017000214170F5E7E439002070B5064677
:102C90000D460C48FEF70BF8040008D0E3681BB1A2
:102CA000217A2A46304698472046FDF7F1FF05482D
:102CB0000068002804D04068BDE87040FDF7F2BF0E
:102CC00070BD0000A82800202DE9F0410E460746FF
:102CD000154603211020FDF7EFFF067247600446FA
:102CE000C5600648006810B93846FDF7DBFF21468D
:102CF000BDE8F0410148FDF7E4BF0000A82800202E
:102D000070B56C211448FDF7A0FF134CFF20A07094
:102D1000E0701248FDF7DAFF11490320FDF7DBFFF1
:102D200000210320FDF778FF0EA504F134002ECD1D
:102D300080E82E00102084F8330003F051F80123BE
:102D40000322072140F60250FDF7A7FF0121017081
:102D5000BDE87040FDF7A6BFE4390020A828002098
:102D6000F8700101424C4520484944204B42442020
:102D70004D49434500000000F0B50446000A002616
:102D80001F0A85B00D460C2829D00E280BD0C82864
:102D900038D0A4F6027028283CD8204603F048FB1F
:102DA000002005B0F0BDA4F61260092805D80A4637
:102DB00021461948FFF7A8FA0646A4F560601138C5
:102DC00003D0B4F5636F05D024E029463846FFF7F9
:102DD00009FD1FE029463846FFF7C8FC1AE0A4F5B4
:102DE0004060023816D10F208DF800008DF8047075
:102DF0000888ADF806000948D0F8881051B1684637
:102E0000884707E00648006820B10A462146FFF7D8
:102E10007BFA06463046C4E7E46F0101E43900203E
:102E2000E828002030B4114B0224A4280BD0002540
:102E3000A32812D0A82801D0A7280CD15D7030BCDF
:102E40000320FEF777BF22B15C7030BC1046FFF75D
:102E500003BC0420587030BC704722B15D7030BC98
:102E60000320FEF745BF5C70F9E70000E43900205D
:102E700030B4114B0224A4280BD00025A12812D075
:102E8000A82801D0A7280CD1DD7130BC0120FEF7A5
:102E900051BF22B1DC7130BC1046FFF735BC0420B5
:102EA000D87130BC704722B1DD7130BC0120FEF713
:102EB0001FBFDC71F9E70000E43900202DE9F04183
:102EC00014460F460546FFF7C3FC40071CD50821F2
:102ED0002846FFF779FD1E4805EB450100EBC105CB
:102EE000A86818B1FDF7D4FE0020A8600321A01C3B
:102EF000FDF7E2FEA8600480A86822463946BDE8D6
:102F0000F041801CFDF78DBE1148303046193079F4
:102F1000022801D0042819D1201D83B203220721E1
:102F200040F6A650FDF7B9FE0546A9202870B078F6
:102F3000687022463946281DFDF773FE6C80B17813
:102F40002846BDE8F041034AFFF7BEBEBDE8F08168
:102F5000B4390020612800012DE9F04114460F46E4
:102F60000546FFF775FC40071CD540212846FFF7B2
:102F70002BFD1E4805EB450100EBC105286918B182
:102F8000FDF786FE002028610321A01CFDF794FEBA
:102F900028610480286922463946BDE8F041801C3A
:102FA000FDF73FBE1148303046193079022801D074
:102FB000042819D1201D83B20322072140F6A65010
:102FC000FDF76BFE0546AB202870B078687022468E
:102FD0003946281DFDF725FE6C80B1782846BDE8EE
:102FE000F041034AFFF770BEBDE8F081B43900201C
:102FF000612800012DE9F04114460F460546FFF710
:1030000027FC40071CD510212846FFF7DDFC1E4891
:1030100005EB450100EBC105E86818B1FDF738FE86
:103020000020E8600321A01CFDF746FEE860048054
:10303000E86822463946BDE8F041801CFDF7F1BD45
:103040001148303046193079022801D0042819D1AE
:10305000201D83B20322072140F6A650FDF71DFE76
:103060000546AA202870B07868706C8022463946E0
:10307000281DFDF7D6FDB1782846BDE8F041034A8A
:10308000FFF722BEBDE8F081B439002061280001BD
:1030900070B5064615480D468419207902280FD1CF
:1030A0003046FFF7D5FB40070BD520213046FFF710
:1030B0008BFC0E4906EB4600303901EBC0008582DF
:1030C00070BD3A230322072140F6A150FDF7E5FD2C
:1030D000A4210170A1784170458000210171A1787F
:1030E000034AFFF7F1FD0320207170BDE439002091
:1030F00061280001024610B511488418207904287F
:103100000CD0032804D01046FFF7A2FB800616D58A
:10311000BDE8104001211046FFF756BC02230322F0
:10312000072140F6A250FDF7B8FDA5210170A17856
:103130004170A178034AFFF7C7FD0520207110BD3B
:10314000E43900206128000110B50A79012109F055
:10315000E5FA002010BD70B50D46044606F04CF9A6
:103160006988884200D308460146204609F0A6FB3C
:103170000121204608F06EFF012801D0412200E025
:1031800000220121204609F0C9FA002070BD10B5C7
:103190000446012108F05EFF0C2803D00F2810D050
:1031A000412208E00121204608F062FF41890089A0
:1031B000814206D052220121204609F0AFFA0020B8
:1031C00010BD0022F7E72DE9F0470F4682460121A6
:1031D00008F040FF032801D0402243E0012150467F
:1031E00008F046FF4FF6FF7904460026C84624E063
:1031F0000121504608F044FF63780146062202EBA5
:103200000A2240F604409B1DFDF747FD0546B8190C
:10321000B61C8188F2B2B8182980818869806078EC
:10322000921C2871D6B28846627804F10801681DA4
:10323000FDF7F7FC2846FDF735FD7888B042D7D872
:1032400008F1010081B2E0884A46904200D202466D
:103250008A4206D329B1A1800121504609F0DEF946
:1032600004E00A220121504609F058FA0020BDE886
:10327000F0872DE9F0470F468246012108F0EAFE6B
:10328000072801D0402247E00121504608F0F0FE17
:1032900081467878012804D01020002580462C46ED
:1032A00023E00220F9E70121504608F0E9FE01463B
:1032B000062202EB0A2208F1040340F60740FDF75C
:1032C000ECFC06467819AD1C8488EDB2348079197F
:1032D00086F802804246F01C091DFDF7A2FC05EBB2
:1032E0000800C5B23046FDF7DDFC7888A842DAD880
:1032F000641CB9F806004FF6FF72A1B2904200D3E9
:103300001046884207D331B1A9F804100121504674
:1033100009F084F904E00A220121504609F0FEF97F
:103320000020BDE8F087000070B50C464A881D49B2
:10333000054651F82010496908E08B88934204D86B
:10334000CB88934201D3088904E009680029F4D1AD
:1033500003F0E2FEA188891D8BB2062101EB052254
:1033600021781B2919D040F60D4501462846FDF766
:1033700094FC054620781B2812D013202870A088C2
:1033800068806088A880A288A11DA81DFDF749FC5F
:103390002846FDF787FC002070BD40F60C45E4E7A9
:1033A0001220EBE7D43B00202DE9F0410D46064604
:1033B000FF210024114B95F80800224613F83270C3
:1033C000874202D103EBC2046468521CD2B20E2AB7
:1033D000F4D37CB11D2808D01B2806D0062000EBB2
:1033E000062140F61C40FDF77BFC05F10801304644
:1033F000A04701460846BDE8F08100006C78010155
:1034000070B50D460646012108F024FE0C2806D0B2
:1034100041220121304609F081F9002070BD0121CF
:10342000304608F025FE0446A888E188401A81B29B
:10343000618104F10C000144EA8805F10800FDF700
:1034400054FC28B96089E98808442189884201D957
:103450004FF6FF7060810121304609F0DFF8DCE7AC
:103460002DE9F35F0C4648884978B0FBF1F0C5B20E
:103470000121009808F0EEFD022868D1002D66D0E9
:103480000121009808F0F4FD054600266078B0465A
:10349000142801D0022000E01020814600274FF6BA
:1034A000FF7A35E00121009808F0EAFD0146009816
:1034B000062202EB002209F1060340F60440FDF764
:1034C000ECFB8346A019B61C8088ABF80000F1B273
:1034D0006018891C8088ABF80200CEB28046A11922
:1034E0008BF804904A460BF10500091DFDF799FB86
:1034F00006EB0900C6B26B7805F1080249460BF1EC
:10350000050000F0E5FD00B101275846FDF7CAFBB4
:103510006088B04202D90FB9D045C3D108F101008B
:1035200080B267B9E988514500D35146814206D33C
:1035300028B1A8800121009809F070F804E0002269
:103540000121009809F0EAF80020BDE8FC9F412223
:10355000F6E700002DE9F34F81B000260C46B14696
:1035600001210096019808F075FD062201990428B2
:1035700002EB012866D0052805D0062803D00A28CA
:1035800070D04022F8E00121019808F071FD054655
:103590006078072801D9102000E0022082464FF011
:1035A000050B3DE0A019B0F80490287805280AD052
:1035B00006EB0B0020446B7805F108025146001D14
:1035C00000F086FD48B30121019808F059FD01463D
:1035D00042460AF1060340F60640FDF75EFBB61CC4
:1035E0000746A0F80090F1B26018491C00793871C4
:1035F000C9B26018891C82887A80CEB2A11987F876
:1036000005A05246B81D091DFDF70BFB06EB0A008D
:10361000C6B23846FDF746FB02E060783044C6B2D9
:103620006088B042BED809F1010081B2EA884FF645
:10363000FF70824200D21046884276D3002974D0AF
:10364000A9806CE00121019808F012FD8346002753
:10365000A0783D46400702D01020824630E0012786
:103660000220FAE763E00121019808F009FD014614
:1036700042460AF1080340F60540FDF70EFB0546F9
:10368000A019B61C81882980F1B26018891C828833
:10369000C9B260186A808288891CAA80CEB2A7B19C
:1036A000A11985F806A05246E81D091DFDF7B9FAD3
:1036B00006EB0A00C6B2B5F800902846FDF7F2FA0C
:1036C0006088B042CFD84FB11AE03C4A0198A5F1CA
:1036D0000C0152F820000C30FDF7F3FA85B1002000
:1036E000009043460A22042101980CF005FC014693
:1036F00068884880019800F041F90020BDE8FE8FFD
:1037000009F1010081B2BBF806004FF6FF7290424A
:1037100000D202468A4208D331B1ABF8041001212D
:10372000019808F07BFF2BE0FFE70A2224E00198D4
:1037300008F088FC6178801E884223DD0121019811
:1037400008F09EFC63780146424640F609401B1D86
:10375000FDF7A3FAA1880546018014F8010F611D49
:10376000801E82B2AA8000206880A81DFDF759FA49
:103770002846FDF797FA00220121019808F0CEFFB4
:103780000098BBE7A4F108050121019808F070FC3E
:10379000A18881806178891EC180002101816078C3
:1037A000A5F10C01801E68800448019A50F822009F
:1037B0000C30FDF786FA01200090B0E7D43B0020E2
:1037C0002DE9F05F89468346012108F043FC0B2870
:1037D00001D0412248E00121584608F049FC00266A
:1037E0000746B246354635E00121584608F048FC08
:1037F00007EB85080146B8F806000622801D83B253
:1038000002EB0B2240F60940FDF747FAB8F8041026
:1038100004460180B9F80200B8F80610801B814206
:1038200000D2084682B2A2800020608009EB060127
:10383000A01D091DFDF7F5F9A0888119CEB2B8F8D1
:103840000610884201D04FF0500A2046FDF72AFAB0
:103850006D1CEDB27878A842C6D8B9F80200B04223
:1038600001D04FF0500A52460121584608F056FF49
:103870000020BDE8F09F00002DE9F0410C4606460F
:103880004FF00008012108F0E5FB3B4F042807D06A
:1038900008282BD0092829D00A2827D0412258E00F
:1038A0000121304608F0E4FB054657F826000C30AD
:1038B000FDF7FDF900F10C071022211DF81DFDF7A1
:1038C000B0F91020B8713846FDF7ECF938884FF69A
:1038D000FF72401C81B2E888904200D310468842B3
:1038E00002D309B1A98040E00A2232E0012130462A
:1038F00008F0BEFB0546A11F002021F80E0957F86D
:1039000026000C30FDF7DDF9288920B1618881425D
:1039100000D20846608057F8260062884FF0010800
:10392000C068C189114489B2C181B1F5006F01D964
:1039300011220EE0304608F085FB6188401E884267
:1039400003DC2889814209D340B1304600F054F8A5
:1039500000220121304608F0E1FE0AE0EA88114425
:10396000E98010B16188401A28810121304608F0B1
:1039700055FE4046BDE8F081D43B002010B50C4612
:1039800001462078D2280CD052280AD01E2808D010
:10399000062000EB012140F6B83240F61C40FDF74E
:1039A000A9F92046BDE810400CF032BE38B50446F7
:1039B0000020009006200D4600EB0423182204216D
:1039C00020460CF099FA014645702046BDE8384083
:1039D000FFF7D4BF38B5044600200090062000EB66
:1039E00004231E22042120460CF086FA01462046BC
:1039F000BDE83840FFF7C2BF2DE9F05F374C814684
:103A000054F82900C068002866D00121484608F013
:103A10002FFB824654F82900A3464FF00008C568E2
:103A200001214846EF8905F10C0408F029FBB91D76
:103A30008BB20622014602EB092240F60940FDF74F
:103A40002CF98780BAF804100180BAF806100646EF
:103A50004180207A092833D1627A04F10807B01D29
:103A6000B91D921EFDF7DDF87878811E1FFA81F8E6
:103A7000296819B17188081A801C70802D68A4F11A
:103A80000C00FDF73CF905F10C0419E004F10807FE
:103A900006EB08006289391D801DFDF7C2F87888A1
:103AA00000EB08011FFA81F8296811B17188081A22
:103AB00070802D68A7F1140005F10C04FDF71FF9C3
:103AC000002DE3D15BF829000C30FDF7FFF83046FC
:103AD000BDE8F05FFDF7E6B8BDE8F09FD43B0020FD
:103AE00010B50446012108F0B5FA0C2801D0412296
:103AF00000E000220121204608F010FE002010BD49
:103B00002DE9FC410F46002100910191984616468F
:103B1000694600F0DBFB040045D14FF420516846B4
:103B200000F0D9FEA8BB42F60101684600F0D3FEC2
:103B300078BB42F60301684600F0CDFE48BB42F672
:103B40000201684600F0C7FE18BB4FF424516846D6
:103B500000F0C1FEE8B942F60211684600F0BBFE73
:103B6000B8B942F60311684600F0B5FE88B900986E
:103B70008088010416D40099C0F30B000D186888E2
:103B8000B04200D207242988B819884202D90D24EE
:103B900009E007E0A8193A464146001DFDF741F843
:103BA0006F8000E006242046BDE8FC817CB50E460F
:103BB0000021009101911546694600F087FB040041
:103BC00025D14FF42051684600F085FEB8B942F681
:103BD0000101684600F07FFE88B942F6030168469D
:103BE00000F079FE58B942F60201684600F073FE13
:103BF00028B94FF42451684600F06DFE08B1062440
:103C000005E0009800994088B0432843488020464A
:103C10007CBD00007FB50BA6044669CE8DE8690027
:103C20000020042A0BD0022A09D010226844FCF795
:103C3000F8FF102269462046FCF7F3FF7FBD0C20F9
:103C4000F4E70000FB349B5F800000800010000060
:103C5000000000002DE9F74F8CB04FF00008CDF8C0
:103C60000880BDF830000E461546CDF8048001A945
:103C7000834600F02BFB04006AD14FF4205101A8C9
:103C800000F029FE514F4FF0010928B942F6010119
:103C900001A800F020FE78B1012308AA03A901A819
:103CA000CDF8009000F0BAFB040051D19DF80C2033
:103CB000328008A9384663E042F6030101A800F00B
:103CC0000AFEDFF808A1AAF1080A40B30BF10100CF
:103CD00080B2CDF81C80CDF81880ADF8300006A970
:103CE00000F0F4FA040032D1002308AA03A906A8C0
:103CF000CDF8009000F092FB9DF80C20D01C308095
:103D000006984088010A8AF80810BDF83010AAF811
:103D1000091008A90AF10B00FCF783FF32E042F614
:103D2000020101A800F0D7FD70B301988188C1F3AA
:103D30000B01084406A98088ADF83000CDF8188042
:103D400080B2CDF81C8000F0C1FA040001D08024BC
:103D500038E0012308AA03A906A8CDF8009000F0D6
:103D60005DFB9DF80C20101D3080069917480988CE
:103D7000AAF808100699001D4988AAF80A1008A98F
:103D8000FCF7C2FF2F601DE04FF4245101A800F0A2
:103D9000A2FD0028019808D08188C1F30B010844D6
:103DA00002213180001D28600CE08088010408D4C5
:103DB0000199C0F30B000844011D29604088308040
:103DC00000E006240FB02046BDE8F08F2C3C002018
:103DD00008B100F06BBA02490020086048607047E3
:103DE000243C00201FB507A41ECC8DE81E0081894D
:103DF000ADF80C10102302461946684600F068F929
:103E000004B010BDFB349B5F8000008000100000F8
:103E1000000000001FB507A41ECC8DE81E00C1687D
:103E20001023024603911946684600F051F904B088
:103E300010BD0000FB349B5F80000080001000007C
:103E4000000000002DE9FF5F8046DDE90E9A0027A3
:103E50001E4615460120DDF844B00CE03DB105EBEF
:103E6000D00100F007020978D140C90701D07F1CBA
:103E7000FFB2401CC0B2B042F0D307EB470000EBEA
:103E8000C700162101EB40000321FCF715FFB8F82D
:103E9000001001804771A0F802A02BF060010171B1
:103EA000BDF80410C1800446002101201FE03DB18F
:103EB00005EBD00200F007031278DA40D20714D0E5
:103EC000109A01EB410302EBC00203EBC10304EBC8
:103ED0004303D7881F859788491C27F4C0475F850F
:103EE0005788DF841288DA82C9B2401CC0B2B0425F
:103EF000DDD3204600F018F907001CD12188A8F86E
:103F000000100021084611E03DB105EBD00200F0A1
:103F100007031278DA40D20706D098F800200A4446
:103F2000491C09F80020C9B2401CC0B2B04202D2FC
:103F3000B9F1000FE8D12046FCF7AAFE04B03846DC
:103F4000BDE8F09F2DE9FF5F8246DDE9119500266F
:103F50001F4690460120DDF838B00EE0B8F1000FA2
:103F600007D008EBD00100F007020978D140C9075B
:103F700001D0761CF6B2401CC0B2B842EED306EBBC
:103F8000460000EBC600162101EB40000321FCF7C0
:103F900093FEBAF80010018046710F9941800446E3
:103FA00080F80490C9F3411020B1012806D00228FE
:103FB00013D108E0BDF80400E0800AE055F8040BD6
:103FC000C4F8060005E010222946A01DFCF729FED2
:103FD00010354FF00009012630E00D255DE000BFEF
:103FE000B8F1000F07D008EBD60006F00701007803
:103FF000C840C00720D0109809EB490300EBC60168
:1040000003EBC90004EB4000CA8802858A88428518
:104010004B88C384C2F34132C2B1012A19D0022AAB
:10402000DBD1102229461630FCF7FBFD15F11005F7
:1040300009F1010000F0FF09761CF6B2BE42CFD3B1
:10404000204600F071F8050008D026E00988C182FA
:10405000EEE755F8041BC0F81610E9E72188AAF826
:1040600000100021084613E0B8F1000F07D008EB5C
:10407000D00200F007031278DA40D20706D09AF88F
:1040800000205318491C0BF80030C9B2401CC0B2C4
:10409000B84202D2BBF1000FE6D12046FCF7F8FD92
:1040A00004B02846BDE8F09F70B50D46002400F02E
:1040B00091F928B1807A20F060002870204670BD08
:1040C0000124FBE707B5022302AA00F001F80EBDA8
:1040D00070B5002488B01D461646022906D0042972
:1040E00008D010290BD0102D09D019E0022DFAD1DB
:1040F000022202E0042DF6D1042231460CE00A46E9
:1041000001466846FFF786FD2A46314604A8FFF7B8
:1041100081FD102204A96846FCF7E7FD00B90124DF
:1041200008B0204670BD0000F8B50646008830B1E2
:104130000025304600F0C0FA04002BD101E0012533
:10414000F7E76946304600F0D4F9040022D1012196
:10415000BDF80000FCF7B0FD074601462B46BDF850
:104160000020304600F0D2FA38460B49002308E020
:1041700085889688B54203D202600123086000E07A
:1041800011460A6812B1002BF2D003E013B908609F
:10419000002101602046F8BD243C00202DE9F84FA5
:1041A00082460A9F16460C463868002528B93946CB
:1041B000504600F08BF8050075D14FF42051384679
:1041C00000F089FB4FF000094FF40078B8B942F6CF
:1041D0000101384600F07FFB88B942F603013846FA
:1041E00000F079FB58B942F60201384600F073FB43
:1041F00028B94FF42451384600F06DFB50B126B178
:10420000464505D1A4F800904DE0A4F800804AE0AE
:10421000062548E03868408820809EB33042F7D0B9
:104220008DF8009069465046FFF73EFF05003AD1F1
:1042300038688088C00403D49DF80000800700D54A
:104240000C25B6F5805F22D008DC46450DD0B6F5CA
:10425000806F0ED0B6F5006F0FD10AE0B6F5005FA3
:1042600011D0B6F5804F08D103E0207800F00300AC
:1042700002E02078C0F3810020809DF80000C10694
:1042800009D508250FE02078C0F30110F4E7207865
:10429000C0F38110F0E7C0F381008DF800002188A1
:1042A000814200D220802846BDE8F88F70B5064CC8
:1042B000206803E00568FCF7EBFC28460028F9D1EC
:1042C0002060606070BD0000243C002070B50C468A
:1042D0000646012500F07EF880B181880025B142B4
:1042E00003D1001D2060012007E0711A01EB41019C
:1042F00000EB41000830206000202071284670BD8E
:1043000070B50D46064600244FF4205100F0E3FA44
:10431000B8B942F60101304600F0DDFA88B942F63C
:104320000301304600F0D7FA58B942F60201304690
:1043300000F0D1FA28B94FF42451304600F0CBFAFE
:1043400008B1062407E0316888880204C0F30B0036
:1043500000D4085A2880204670BD0000F0B51C4DDE
:104360000124D5E90023CBB106889F88BE4215D32E
:10437000DA88964201D81A4614E01A680EE00388DB
:104380009688B34206D3D688B34206D8D37ADB07E1
:1043900008D002E0D37ADB0703D01268002AEED1FE
:1043A00013E00680938800880024834203D1101D07
:1043B0000860012007E0C01A00EB400002EB40005B
:1043C00008300860002008716A602046F0BD0000D7
:1043D000243C0020104B10B50246D3E9000199B1EE
:1043E0008C88944210D8C888904201D3084610BDEA
:1043F000086809E0818891420BD8C188914202D3B4
:10440000C17AC90703D000680028F3D110BD5860F5
:1044100010BD002010BD0000243C0020F8B5164659
:104420000025069A0C460D700168A9B1077987B37B
:1044300003B3897911F0600F10D0C1F34111012944
:104440000ED002290ED00021217002290CD004299F
:104450000DD0102945D10AE0012542E00221F3E701
:104460000421F1E71021EFE70168083130E000682E
:1044700001892CE04FF42050ADF800008879000647
:1044800003D542F60100ADF8000002222270694611
:1044900024E0FFE7898811F4C04F0ED0C1F3413109
:1044A00001290CD002290CD00021217002290AD048
:1044B00004290AD0102914D107E00221F5E70421CC
:1044C000F3E71021F1E7016802E000680188014488
:1044D00039B112B12278042A05D022783046FCF78F
:1044E000A0FB2846F8BD3046FFF794FB1020207053
:1044F000F7E72DE9F0470C4601790546002611F053
:10450000600F4FF0100008D0C1F34111012906D00F
:104510000229208005D0402620E020801EE01420C3
:10452000FBE7A81DFFF75EFC30B1287920F06000A2
:104530002871688AE88011E0A81DFFF76BFC00284D
:10454000208814D0001D2080287920F0600040F0E1
:1045500020002871D5F81200C5F8060068794FF0E0
:104560000008002800D926B13046BDE8F087103099
:10457000D3E708EB480101EBC80005EB4009B9F8A7
:104580002A0010F4C04F14D0C0F34130012812D0DB
:10459000022812D000272088801D2080B7B109F1A1
:1045A000160082464FF420523946FFF78BFD68B95A
:1045B00005E00227EFE70427EDE71027EBE7504679
:1045C00042F601023946FFF77DFD08B14026CBE7F0
:1045D000504642F602123946FFF774FD30B9504694
:1045E00042F603123946FFF76DFD38B1B9F82600DF
:1045F000810501D5000555D45626B5E7504642F64B
:1046000002023946FFF75EFD30B950464FF424529E
:104610003946FFF757FD10B12088801D41E0504614
:1046200042F603023946FFF74DFDD8BB042F02D0F6
:10463000102F03D028E02088001D24E05046FFF70B
:10464000D1FB50B1B9F82A0020F4C041A9F82A10D2
:10465000B9F82210A9F8161016E05046FFF7DAFB59
:10466000002820880ED0001D2080B9F82A0020F4F0
:10467000C04040F40051A9F82A10D9F82210C9F816
:10468000161001E010302080B9F82A00000409D487
:10469000B9F828002188C0F30B00401D20F001006C
:1046A0000844208008F1010000F0FF0868794045C7
:1046B0003FF65FAF58E7000030B513490488002388
:1046C0005CB90EE0D588AC4206D840799188204488
:1046D000884216D3012314E011460A68002AF1D15A
:1046E0000FE00122028009E0048845792C44958876
:1046F000AC4206D3D288521C028009680A68002A9C
:10470000F2D1184630BD0000243C00202DE9F84FBE
:104710000646008888800D468C18308871794FF0E5
:10472000000B0844E880708828813079A87285F8E9
:104730000BB0307910F0600F0BD0C0F3411001289E
:104740000AD002280FD00020042807D0102813D147
:1047500009E0F088A8810FE00420F5E7D6F806000C
:1047600044F8040D05E0103C1022B11D2046FCF772
:1047700058FA601B001FA8810027A6E007EB47003E
:1047800000EBC70006EB4008B8F82A0010F4C04F51
:104790000CD0C0F34130012812D0022812D00020E2
:1047A0000090042832D010281CD10DE00220009087
:1047B00007EB470005EB4001B8F81600C88111E08F
:1047C0000420EDE710200090103C08F116011022A3
:1047D0002046FCF726FA07EB470005EB4000211ABC
:1047E0000E39C18107EB470005EB4009B8F82610E8
:1047F000A9F8101008F11600824642F6030200994B
:10480000FFF760FC70B1A9F812B05CE0D8F81600B0
:1048100044F8040D07EB470005EB4001601A0E3821
:10482000C881DFE7504642F602020099FFF74AFCD2
:1048300030B950464FF424520099FFF743FC50B171
:10484000022024F8060D6080B8F82800A080A4EBB0
:1048500009000E3835E0504642F602120099FFF783
:1048600031FC30B9504642F603120099FFF72AFC9A
:1048700048B1B8F82A0048F20201C0F30030014400
:10488000A9F812101FE0B8F82A00010404D5B8F8FE
:10489000281061F30B0014E0B8F82800C0F30B00F7
:1048A000411D21F00101641A2080A4EB0900A4F845
:1048B00002B00E38A9F81200B8F82A106FF30B01F5
:1048C0000843A9F812007F1CFFB27079B8423FF686
:1048D00055AFBDE8F88F024600201379126863B126
:1048E000002A09D0B1F5205F10D09279120603D5C5
:1048F00042F60102914209D07047002AFCD0538849
:1049000013F4C04FF8D112888A42F5D101207047C4
:1049100038B50D460021ADF8001014466946FFF782
:10492000EFFC002804D1BDF800108C4201D3072011
:1049300038BD62198A42FBD90D2038BD70B5074DCC
:10494000044600BF55F8240050F8241F002904D065
:10495000FCF7ADF9FCF79CF9F4E770BDD43B0020FF
:1049600070B5074D044655F82400C06B002806D0EA
:104970000C38FCF7C4F955F824100020C86370BD4A
:10498000D43B002070B5074D044600BF55F8240005
:1049900050F82C1F002904D0FCF789F9FCF778F9AE
:1049A000F4E770BDD43B00202DE9F04F804685B080
:1049B000002001908B460F1F4A780621064601EB26
:1049C000082A012A10D04046FFF7B8FF17200090B0
:1049D00053461922042140460BF08EFA0BF018FEC4
:1049E000019805B0BDE8F08F3888B0BB4B4850F84F
:1049F0002800446A8CB30020049081460090002077
:104A000004F116050290039035F8020902A9FFF798
:104A10005DFC2289618902A8FFF77AFF06004FF04A
:104A2000010038800FD168880499884205D004902D
:104A3000E08800900020A146A0802089009988424B
:104A40000CD94FF007066A889BF8001033464046A1
:104A500000F00EFF4046FFF771FF14E007D2A145BA
:104A600005D00098E0806089A146A08008E06189B7
:104A7000084480B20090B9F804000844A9F8040082
:104A80002468002CBBD1254850F828104C6AC4B1CA
:104A90008146002704F10C05E18A404600F07EFAC9
:104AA0000146A0885246801D83B240F61540FCF7AF
:104AB000F4F869890180A1888180218906464180B6
:104AC00021E04046FFF73AFF002E3FF47FAF87E733
:104AD00004F11601308831F80229904218D1F019FA
:104AE0006289801D0831FCF79CF86089256838448C
:104AF00087B259F828002430FCF7D9F82046FCF793
:104B0000C7F82C0004D0B088B842E1D80028DFD024
:104B10003046FCF7C7F80120019061E7D43B002044
:104B20002DE9F04F07468DB0002008900990488885
:104B30000E1FADF8100030880C4648B9384607F013
:104B400081FA401E30806088A18888421FD8F0B169
:104B500004F10A000DF120090DF1140A0DF1300BDA
:104B600004F106080690A088ADF81C00CDF80CA052
:104B70008DE8000B022307AA04A9384600F076F955
:104B8000050006D00A2D47D0062D76D031E001254C
:104B900042E0E088B0F5205F03D042F60101884290
:104BA00008D1BDF83000217AC3B2DDE90520FFF756
:104BB0008FFA48B92289BDF83000824219D1DDE967
:104BC0000510FCF792F8A0B902210820FCF774F850
:104BD0000146BDF810008880BDF81C00C88031482F
:104BE000083E50F827002C30FCF76BF83846FFF7EA
:104BF000B7FEBDF81C00401CADF81000A088BDF841
:104C00001010884206D3BDF81C10884202D03088AC
:104C10000428A8D2062D3FD0DFF8888058F8270056
:104C20002C30FCF776F848B34FF6FF7101EA8006A6
:104C3000062000EB072300240722042138460096B3
:104C40000BF05AF90146468058F82700C26A0EE078
:104C50000819938803711B0A4371A41CA3B2C818D6
:104C6000D4880471240A44719B1C12689CB2002AE7
:104C7000EED108460BF0CCFC08E00DE0FFE7217810
:104C80000A23BDF81020384600F0F2FD062D06D0AC
:104C900000200DB0BDE8F08FBDF81000608001204D
:104CA000F7E70000D43B00202DE9FC4104460879D9
:104CB0000A4610B10868448830E042F603063146DF
:104CC0001046FFF708FEF8B1002000900190204642
:104CD000FFF780FB641C0546A4B2771E17E0694607
:104CE0002046FFF7F3FA31466846FFF7F4FD48B96E
:104CF00039466846FFF7EFFD20B900216846FFF707
:104D0000EAFD10B1641EA4B208E0641CA4B2E888F5
:104D1000A04202D3A888A042E1D3EC882046BDE897
:104D2000FC8100002DE9FF5F0E46074607F08AF977
:104D3000801E1FFA80F87088B1880024DFF828B13F
:104D4000C14688420DD860B1ADF804000020029041
:104D5000039002A901A8FFF701FB050003D00A2573
:104D60003DE001253BE0B088BDF8041088422DD31A
:104D700002211820FBF7A0FF824601200AF107025A
:104D800000900023511E02A8FFF748FBBDF8041055
:104D90000546AAF804100CB99AF806409AF80600DD
:104DA000A04203D05046FBF773FF18E05BF82700E2
:104DB00051462C30FBF785FFA9EB0400801E1FFA3B
:104DC00080F9BDF80400401CADF80400B188BDF8BE
:104DD0000400814203D310B1A11C8945B9D25BF80C
:104DE0002700DA46C06AD0B1A8EB09081FFA88F09C
:104DF0000090062000EB07230026052204213846F8
:104E00000BF07AF80546022C0BD0022068706988F6
:104E100001EB080068805AF82700C46A12E0BDB1AF
:104E200017E00120F2E7A819A1888180B61CB6B26C
:104E3000A819A279E11D001DFBF7F3FEA0792468F3
:104E4000304486B2002CEED128460BF0E1FB06E0A0
:104E50000A25728831782B46384600F009FD04B0E7
:104E60000020BDE8F09F0000D43B00202DE9FF4F5B
:104E700087B00F88DDE914A8DDF85CB099461546C7
:104E80000C46002641462046FFF768FA10B12888F4
:104E9000208029E02088298888421FD8002301AA81
:104EA00005A940460096FFF7B9FA9DF8143001AA0B
:104EB00049465046FFF70CF968B122884346002165
:104EC000079800F01FF8064620884146FFF7ECFEE1
:104ED000288066B112E02088401C2080298880B29A
:104EE000884201D80028CDD10A26278006E02188F3
:104EF0005B46169A079800F05FF806460BB03046FE
:104F0000BDE8F08F2DE9FC41002614460D46804691
:104F1000062901D906243CE01F4905EB4500009312
:104F200001EB400731F810207B8801A92046FFF7EC
:104F300035F90446062804D00C2C03D101260024A0
:104F400001E03C792CBBBDF8040010B3404602F0F0
:104F500029FBA8B1032D15D00121404602F0B6FA75
:104F600038B17EB1404601F0C5FF10280AD20C24AA
:104F70000FE00221404602F0A9FA08B10F2408E030
:104F8000052406E0404602F00DFBBDF804108842FF
:104F9000F6D32046BDE8FC817875010110B50446C2
:104FA0000846FFF717FA01460089897AC90701D038
:104FB00040EA042010BD00002DE9F04105461E48DE
:104FC0000E46984650F825101746C96BC1B10A889D
:104FD000B24212D10C79062C01D02CB100E0802411
:104FE0002846FFF7BDFC11E04988398050F82500BC
:104FF000C06B401DC8F8000008E02846FFF7B0FC71
:10500000424639463046FEF725FE0446062C0FD1AF
:1050100031462846FFF7C2FF0146062000EB052275
:10502000022340F61340FBF738FE0680FBF73AFEFA
:105030002046BDE8F0810000D43B00202DE9F04778
:105040000C460646097A06204FF0FF084FF000098B
:1050500000EB06251E2922D01F4A0C2012F8303002
:105060008B4232D1DFF8748058F82600406B50B381
:1050700000272846FBF752FEC00600D5002758F847
:105080002600A4F10C013430FBF71BFEA4F80490B9
:105090004FF00108EFB1304600F0C0F819E00021F0
:1050A000304606F0D7FF132801D0142809D129462D
:1050B00040F61D40FBF714FE00221146304607F073
:1050C0002DFBC84605E00127D3E7401E40B200286B
:1050D000C4DA4046BDE8F0879C750101D43B00204E
:1050E000F8B50E46074604F087F905460020009003
:1050F000062000EB07230322042138460AF0FCFEB9
:10510000044604F079F97188884200D308460146C4
:10511000384607F0D3FB658020460BF079FA002073
:10512000F8BD00002DE9FF5F814600200E1F0290B0
:105130008246039030880C4638B9628802AB012160
:105140004846FFF7DFFE070030D1DFF8CCC0002370
:1051500006255CF82900678805EB0925416A05E00A
:10516000CA8ABA4201D1012300E0096811B1002BBB
:10517000F6D002E00BB9318811B3E0463430FBF7CA
:1051800096FD834630886188C0F30B00CDE900109E
:10519000A388E2885946484600F0C6FB070020D0A5
:1051A00058F8290059463430FBF7BDFD6288217854
:1051B0003B46484600F05CFB04B05046BDE8F09F1B
:1051C00039464846FFF7EAFE01462A46022340F6E2
:1051D0001740FBF762FD61880180FBF763FD01204A
:1051E00018E0E08800902B461722042148460AF078
:1051F00083FE054660886880E288EA8004F1080141
:1052000005F10800FBF70DFDA088A88028460BF0EB
:10521000FFF902208246CFE7D43B00202DE9F04180
:10522000194E0546194F56F82500446B28E000BF7B
:1052300004F11401002211F804390C2017F830C0D1
:105240009C4503D107EBC000426803E0401E40B21A
:105250000028F3DA2846091D904720B1012811D013
:1052600002280DD109E02846FFF78CFB56F82500EF
:105270003430FBF71CFDFBF742FD56F82500446B6C
:10528000002CD5D1BDE8F081D43B00209C750101F4
:10529000F0B585B006460020029003900D464A887E
:1052A000014602AB3046FFF72DFE040007D16988A6
:1052B00004AB01AA3046FFF77FFE04000AD0062C9B
:1052C00041D06A8829782346304600F0D1FA062C6E
:1052D00039D035E0A888BDF80410884201D90724E8
:1052E000EFE70C1A304606F0ADFE401E844200D2B5
:1052F000204684B2BDF804000090062000EB06238F
:105300000D22042130460AF0F7FD44800746A888A4
:10531000049922460144381DFBF783FC38460BF004
:1053200077F9A888BDF804102044884208D1304697
:1053300006F088FE401EA04202D03046FFF710FB68
:10534000002005B0F0BD0120FBE700002DE9F04F83
:105350008DB00025064609950A9548880F1FADF8BF
:10536000100038880C46A84650B9304606F06AFE50
:10537000801E38806088A188884200D800B9012545
:10538000614850F82600C06A08B190F806809DB9BF
:1053900004F1080BA088ADF8180008A805A909AA0F
:1053A000CDE90210CDE900B2A37906AA04A93046DE
:1053B000FFF75CFD050024D0062D71D0DFF8488191
:1053C00058F826002C30FBF7A4FC002869D058F8C8
:1053D000261000271122CC6A217A091D41431FFAA9
:1053E00081F8062000EB062304213046CDF800802A
:1053F0000AF082FD0646A0F80280207A001D707037
:1054000069E0BDF81410884502D0B8F1000FD5D17D
:105410003888FB22001FFB2800D31046814200D2AF
:1054200008461FFA80F9022109F10C00FBF744FC41
:105430008246BDF81480BDF81000AAF80400BDF83B
:105440001800AAF806008AF808904A460AF10900EE
:105450000899FBF7E6FB3988A1EB0900001F3880AB
:105460002948514650F826002C30FBF72AFCBDF89D
:105470001410894502D13046FFF772FABDF81800C2
:10548000411C8AB2ADF81020A188914296D3814286
:1054900094D0398808F104008142BFF47BAF8DE7D6
:1054A0002CE01EE0F019A1880171090A4171BF1CAE
:1054B000B9B27018E2880271120A891C42718FB267
:1054C000F019227A04F10901001DFBF7AAFB207AEA
:1054D0002468384487B2002CE4D130460BF098F8A9
:1054E00006E021782B46BDF81020304600F0C0F9C8
:1054F000062D06D000200DB0BDE8F08FBDF81000DD
:1055000060800120F7E70000D43B00202DE9F04F38
:105510008DB0002506460895099548880F1FADF8FF
:10552000100038880C46A84650B9304606F08AFD6F
:10553000801E38806088A188884200D800B9012583
:105540005B4850F82600C06A08B190F806809DB903
:1055500004F1080BA088ADF82C0007A805A908AA3B
:10556000CDE90210CDE900B2A3790BAA04A9304617
:10557000FFF77CFC050024D0062D7DD0DFF83081BC
:1055800058F826002C30FBF7C4FB00287ED058F8D2
:10559000261000270922CC6AA179891C41431FFAF1
:1055A00081F8062000EB062304213046CDF8008068
:1055B0000AF0A2FC0646A0F80280A079801C707058
:1055C0005EE0BDF81410884502D0B8F1000FD5D1C7
:1055D0003888FD22801EFD2800D31046814200D26B
:1055E00008461FFA80F9022109F10800FBF764FB65
:1055F0008246BDF81480BDF81000AAF804008AF8AD
:1056000006904A460AF107000799FBF70AFB39881A
:10561000A1EB0900801E38802548514650F826002D
:105620002C30FBF74EFBBDF81410894502D13046F3
:10563000FFF796F9BDF82C00411C8AB2ADF8102096
:10564000A18891429AD3814298D0398808F102000A
:105650008142BFF47FAF91E7F019A1880171090A77
:105660004171BF1CBFB2F019A279E11D001DFBF70B
:10567000D8FAA079384401E015E007E0246887B241
:10568000002CE9D130460AF0C3FF06E021782B4612
:10569000BDF81020304600F0EBF8062D06D00020B3
:1056A0000DB0BDE8F08FBDF8100060800120F7E775
:1056B000D43B00202DE9FF5F0025DFF814918046E0
:1056C0000195029559F828000E462C30FBF721FB76
:1056D000341F07462088D8BB404606F0B3FC401E66
:1056E000208035E006EB470A01ABBAF80420002120
:1056F0004046FFF707FC050033D1BAF8041003ABAE
:105700006A464046FFF758FC050021D12088BDF8C5
:105710000010884200D90846824602210830FBF773
:10572000CBFAA0F804A083465246801D0399FBF7EC
:1057300078FA59F8280059462C30FBF7C2FA40464F
:10574000FFF70EF921887F1CA1EB0A002080BFB271
:105750007088B84204D9208810B1002DC2D000E072
:1057600055B1062D32D006EB4700317882882B46A2
:10577000404600F07DF825E0404606F063FC2188B5
:105780000026401A401E84B2062101EB0823404641
:105790000F22042100940AF0AFFB0546448059F81B
:1057A0002800C46A09E0A819A288A11D001DFBF702
:1057B00038FAA0882468304486B2002CF3D12846F9
:1057C0000AF026FF002004B0BDE8F09F0120FAE7B0
:1057D000D43B002070B586B00546002004900590AB
:1057E0000C464A88014604AB2846FFF78BFB0300B2
:1057F00007D1618803AB02AA2846FFF7DDFB03004F
:1058000007D0062B32D062882178284600F030F885
:1058100029E0BDF80840284606F014FC401E8442EA
:1058200000D2204684B2062000EB05230B2204217F
:10583000284600940AF060FB448006462246001D7C
:105840000399FBF7EEF930460AF0E2FEBDF80800D6
:10585000844208D1284606F0F5FB401EA04202D043
:105860002846FFF77DF8002006B070BD0120FBE759
:10587000F8B50E46172100911C460621154601EB8E
:105880000023012204210AF037FB46704580047191
:10589000BDE8F8400AF0BCBE2DE9FE4306460020F4
:1058A0000190029008788A880D46122808D00521B8
:1058B00001AB3046FFF726FB5FEA000802D02EE07E
:1058C0000421F5E7EC88304606F0BCFBC01E84429C
:1058D00000D2204684B2062000EB062300942878EC
:1058E0001F4612281ED01D22042130460AF004FB58
:1058F0000646A8887080B480224605F10801B01DD4
:10590000FBF78FF930460AF083FE2878122806D07C
:10591000394640F6B83240F61D40FBF7EBF94046F9
:10592000BDE8FE831B22DFE72DE9F0471B4C07464D
:10593000DDE908C854F827004FF000091646406A10
:1059400040B180881044B0F5006F02D94FF01109C2
:1059500021E086B24A810B81A1F8068054F8270025
:10596000A0460D4650F8244F09E0E18A614505D96B
:105970002A462146FBF7DCF91CB108E02468002C1C
:10598000F3D158F8270029462430FBF79AF958F844
:105990002700406A86804846BDE8F087D43B002057
:1059A0002DE9F0418846069E1F46154604463146BD
:1059B000FFF7F4FA0146A81D83B2062000EB04228B
:1059C00040F61540FBF769F906808580044647805C
:1059D0002A464146801DFBF724F92046BDE8F041E8
:1059E000FBF760B9FEB506460020019002900C4618
:1059F00005464A8801AB02213046FFF783FA70B9A9
:105A0000A188002201A8FEF783FF40B960880090BA
:105A1000A2880023A11D3046FFF7C2FF01252846BA
:105A2000FEBDFEB506460020019002900C460546DC
:105A30004A8801AB01213046FFF764FA030006D122
:105A4000A188002201A8FEF763FF030006D0628848
:105A500021783046FFF70CFF2846FEBD6088009095
:105A6000A2880023A11D3046FFF79AFF0125F3E726
:105A700008B53AB1134601B00A4612215DF804EBAD
:105A8000FFF7F6BE00210091062101EB002313224F
:105A900004210AF031FABDE808400AF0B9BD2DE949
:105AA000FC410646002000900190044688880D467F
:105AB0000C3887B24A886B4603213046FFF722FA3A
:105AC00038BB002239466846FEF722FF08BBA8888B
:105AD000C01D83B2062000EB0622082040EA062102
